:100000000C9463000C948B000C948B000C948B006C
:100010000C948B000C948B000C948B000C948B0034
:100020000C948B000C948B000C948B000C948B0024
:100030000C948B000C948B000C948B000C948B0014
:100040000C94F1060C948B000C94BF060C9499064A
:100050000C948B000C948B000C948B000C948B00F4
:100060000C948B000C948B000000000024002700EF
:100070002A000000000023002600290000000000E4
:10008000250028002B0004040404040404040202D4
:100090000202020203030303030301020408102007
:1000A0004080010204081020010204081020000012
:1000B0000008000201000003040700000000000027
:1000C00000003B07460A11241FBECFEFD8E0DEBF79
:1000D000CDBF11E0A0E0B1E0E4ECFCE102C005908E
:1000E0000D92AA34B107D9F722E0AAE4B1E001C029
:1000F0001D92AA34B207E1F710E0C2E6D0E004C0D6
:100100002197FE010E94160DC136D107C9F70E9442
:10011000FC070C94550E0C940000FC0167816734B9
:10012000F9F020853185615031F070E08FEF96E471
:100130000E94E70C02C060E070E0D9014481558163
:10014000CD01821B930B8417950740F44C91469F79
:10015000C001479F900D11249D93F0CF87E48783C2
:100160000895CF92DF92EF92FF920F931F93CF9358
:10017000DF936C017A018B01C0E0D0E0CE15DF0582
:1001800089F0D8016D918D01D601ED91FC9101901E
:10019000F081E02DC6010995892B11F47E0102C082
:1001A0002196ECCFC701DF91CF911F910F91FF9066
:1001B000EF90DF90CF900895089580E090E008954B
:1001C000FC01538D448D252F30E0842F90E0821B5D
:1001D000930B541710F0CF96089501970895FC01E2
:1001E000918D828D981761F0828DDF01A80FB11D6E
:1001F0005D968C91928D9F5F9F73928F90E0089592
:100200008FEF9FEF0895FC01918D828D981731F04B
:10021000828DE80FF11D858D90E008958FEF9FEF9F
:100220000895FC01918D228D892F90E0805C9F4F75
:10023000821B91098F73992708958BE591E00E94A5
:10024000110121E0892B09F420E0822F0895FC019F
:10025000848DDF01A80FB11DA35ABF4F2C91848D4F
:1002600090E001968F739927848FA689B7892C9384
:10027000A089B1898C9180648C93938D848D98131F
:1002800006C00288F389E02D80818F7D80830895E8
:10029000EF92FF920F931F93CF93DF93EC0181E0D6
:1002A000888F9B8D8C8D981305C0E889F989808192
:1002B00085FD24C0F62E0B8D10E00F5F1F4F0F73CE
:1002C0001127E02E8C8DE8120CC00FB607FCFACF78
:1002D000E889F989808185FFF5CFCE010E94270149
:1002E000F1CF8B8DFE01E80FF11DE35AFF4FF08235
:1002F0000B8FEA89FB898081806207C0EE89FF89C4
:100300006083E889F98980818064808381E090E05E
:10031000DF91CF911F910F91FF90EF900895CF93B0
:10032000DF93EC01888D8823C9F0EA89FB898081FD
:1003300085FD05C0A889B9898C9186FD0FC00FB6CF
:1003400007FCF5CF808185FFF2CFA889B9898C9110
:1003500085FFEDCFCE010E942701E7CFDF91CF913E
:10036000089580E090E0892B29F00E941D01811101
:100370000C9400000895833081F028F4813099F0C6
:100380008230A1F008958730A9F08830B9F0843028
:10039000D1F4809180008F7D03C0809180008F77A1
:1003A00080938000089584B58F7702C084B58F7DD7
:1003B00084BD08958091B0008F7703C08091B00014
:1003C0008F7D8093B0000895CF93DF93282F30E086
:1003D000F901E255FF4F8491F901E656FF4FD491A0
:1003E000F901EA57FF4FC491CC2399F081110E9483
:1003F000BB01EC2FF0E0EE0FFF1FE458FF4FA5917B
:10040000B4918FB7F8949C91ED2FE095E923EC938C
:100410008FBFDF91CF910895CF93DF93EBEBF0E0A7
:100420008491E7EAF0E0D491E3E9F0E0C491CC23D1
:1004300091F081110E94BB01EC2FF0E0EE0FFF1F45
:10044000EE58FF4FA591B491EC91ED2381E090E03F
:1004500021F480E002C080E090E0DF91CF91089528
:10046000CF93DF9390E0FC01E656FF4F2491FC010F
:10047000EA57FF4F8491882361F190E0880F991F1C
:10048000FC01E859FF4FC591D491FC01E458FF4F9E
:10049000A591B491611109C09FB7F8948881209506
:1004A00082238883EC912E230BC0623061F49FB7C6
:1004B000F8943881822F809583238883EC912E2BAA
:1004C0002C939FBF06C08FB7F894E8812E2B28830A
:1004D0008FBFDF91CF9108958E3008F08E508770D6
:1004E000806480937C0080917A00806480937A009D
:1004F00080917A0086FDFCCF809178002091790070
:1005000090E0922B08953FB7F89480914F0190911D
:100510005001A0915101B091520126B5A89B05C090
:100520002F3F19F00196A11DB11D3FBFBA2FA92F72
:10053000982F8827820F911DA11DB11DBC01CD01EF
:1005400042E0660F771F881F991F4A95D1F70895DB
:100550008F929F92AF92BF92CF92DF92EF92FF92D3
:100560006B017C010E9483024B015C01C114D10428
:10057000E104F104F1F00E948302DC01CB0188194F
:100580009909AA09BB09883E9340A105B10570F3FA
:1005900021E0C21AD108E108F10888EE880E83E054
:1005A000981EA11CB11CC114D104E104F10419F777
:1005B000DDCFFF90EF90DF90CF90BF90AF909F90F6
:1005C0008F9008954F925F926F927F928F929F9239
:1005D000AF92BF92CF92DF92EF92FF920F931F9351
:1005E000CF93DF93CDB7DEB760970FB6F894DEBF39
:1005F0000FBECDBF29873A874B875C876D877E8783
:100600008F87988BA984BA84CB84DC84ED84FE84A4
:100610000F851889809124020E946C024C0120E110
:10062000622E712C809124020E946C02880E991E09
:1006300062E070E080E090E00E94A80281E0681A29
:10064000710881F7940197FE02C0215F3F4F94E04B
:10065000359527959A95E1F7E0912202F0912302D2
:10066000E217F30734F02530310524F425E030E0BB
:1006700001C09F01C901330FAA0BBB0B9C01AD0147
:100680002550310941095109A6EEB0E00E946D0ADA
:100690002F01FF0F66087708A30192012550310949
:1006A000410951090E944E0A37FF05C010922702E6
:1006B0001092260204C030932702209326026091F4
:1006C000260270912702072E000C880B990B0E94BE
:1006D000C50B20E030E046E653E40E941B0B2B01E3
:1006E0003C0120E030E040E85FE30E94750C181602
:1006F00034F4412C512C80E8682E8FE3782EB5011C
:10070000BB0C880B990B0E94C50BA30192010E94A0
:100710007A0C0E948D0BB62E7A836983B601DD0CAC
:10072000880B990B0E94C50BA30192010E947A0CC1
:100730000E948D0BD62E7C836B83B701FF0C880B38
:10074000990B0E94C50BA30192010E947A0C0E9492
:100750008D0BF62E7E836D83B801110F880B990BDC
:100760000E94C50BA30192010E947A0C0E948D0B7E
:10077000862F262F372F38872F832B2D3A814D2D0B
:100780005C816F2D7E81988560960FB6F894DEBFF0
:100790000FBECDBFDF91CF911F910F91FF90EF90D2
:1007A000DF90CF90BF90AF909F908F907F906F9091
:1007B0005F904F9008951F93CF93DF93EC01162F16
:1007C0008981882331F08E8187FD03C060E00E941B
:1007D00030021E838981882339F061E0812F0E94D5
:1007E0003002812F0E94E401812F90E0FC01EA5742
:1007F000FF4FE491F0E0EE0FFF1FE458FF4F25910B
:1008000034913B8B2A8BFC01E656FF4FE491EC8B35
:10081000DF91CF911F910895CF92DF92EF92FF92D7
:100820000F931F93CF93DF93CDB7DEB729970FB602
:10083000F894DEBF0FBECDBF8C01DC0118968D9100
:100840009C911997892B09F4A3C00E948302F80197
:10085000C684D784E088F188DC01CB018C199D091E
:10086000AE09BF098C329140A105B10570F3F8942F
:10087000D80114968D919C9115979A838983189627
:10088000ED91FC9119977F01BFEFEB1AFB0A808174
:100890008987F80190810288F389E02DD801549668
:1008A0008C91992309F430C09081982B988790817E
:1008B000809589238F838F818C8388E08B835885F3
:1008C0006F8149853B812C8189819A81D701508331
:1008D00047FD252F3A952083262F39F0441F00C06D
:1008E00000006083000000C0F2CF38E04D916083CB
:1008F0000000019761F7D8015396FC93EE9352974D
:1009000049873B832C833AC09081982B98879081AC
:10091000809589238F838F818E8388E08D8358858E
:100920006F8149853D812E8189819A81D7015083CC
:1009300047FD252F00C000C0208300C000C000C0BC
:1009400000C000C060830000262F3A9541F0441F8C
:10095000000000C000C000C000C000C0E8CF38E008
:100960004D9100C0608300C0019709F7D8015396EC
:10097000FC93EE93529749873D832E839A83898314
:1009800078940E948302F80166877787808B918B29
:1009900029960FB6F894DEBF0FBECDBFDF91CF9181
:1009A0001F910F91FF90EF90DF90CF900895CF931C
:1009B000DF93EC018E8187FD06C061E00E9430026A
:1009C0008E810E94E40181E08983DF91CF910895B7
:1009D000CF93DF93EC0188810E946C022BEE30E014
:1009E000DC010E940F0D2CEB32E040E050E00E9451
:1009F0004E0A8A819B81FC013196E217F30724F0AD
:100A000001972817390714F43B832A838A819B8135
:100A1000DF91CF910895AF92BF92CF92DF92EF9284
:100A2000FF920F931F93CF93DF93CDB7DEB76097FD
:100A30000FB6F894DEBF0FBECDBF8F87988B80E3D3
:100A400092E00E94E8047C018CE292E00E94E804BB
:100A50005C0188E292E00E94E8048C012FEF30E014
:100A6000D7010E940F0D2BEEC22ED12CE12CF12CC0
:100A7000A70196010E944E0A3A8729872FEF30E09E
:100A8000D5010E940F0DA70196010E944E0A3C87D6
:100A90002B872FEF30E0D8010E940F0DA7019601A0
:100AA0000E944E0A3E872D8788E0FE013996DE01BE
:100AB000119601900D928A95E1F729813A814B8137
:100AC0005C816D817E818F81988560960FB6F894E8
:100AD000DEBF0FBECDBFDF91CF911F910F91FF9071
:100AE000EF90DF90CF90BF90AF9008954F925F92BC
:100AF0006F927F928F929F92AF92BF92CF92DF922E
:100B0000EF92FF920F931F93CF93DF93CDB7DEB792
:100B100028970FB6F894DEBF0FBECDBF7C01822FA1
:100B2000942F10E020E030E09801112700275801B1
:100B30006901D62AB601A501492B582B562E452E00
:100B4000B42E472F552766277727642E9A0160E039
:100B500070E0E0E0F0E080E090E0D70112964D9187
:100B60005C9113978417950708F052C0D701179628
:100B70007C90772069F0579CA0011124852E479C1A
:100B8000A0011124952EB79CA0011124A52E03C00D
:100B9000AB2C942C852CD7011D961C911D971A9671
:100BA0000C911A9718964D915C911997101303C0E8
:100BB0004E0F5F1F11C0460F571F6A01C10ED11C97
:100BC0008601772031F0729E6001739ED00C112453
:100BD00001C0D62CD801DC92D7011A961C916A016B
:100BE000C10ED11CD6018C92D7011B961C916A01B3
:100BF000C10ED11CD6019C92D7011C961C91410FAD
:100C0000511DDA01AC92019633966C5F7F4FA5CFF0
:100C100061E070E080E090E00E94A802C7012896A1
:100C20000FB6F894DEBF0FBECDBFDF91CF911F91FD
:100C30000F91FF90EF90DF90CF90BF90AF909F907B
:100C40008F907F906F905F904F900C940C04CF9397
:100C5000DF93009779F0FC0101900020E9F73197CC
:100C6000AF01481B590BBC018BE591E00E94B1001C
:100C7000EC0102C0C0E0D0E042E050E06AE171E087
:100C80008BE591E00E94B1008C0F9D1FDF91CF9109
:100C900008950E94490EEF92FF920F931F93CF93F6
:100CA000DF93EC017B0188859985009711F00E9404
:100CB000B10D9D858A85981719F084E090E002C0F7
:100CC00083E090E08E9D80018F9D100D9E9D100D04
:100CD00011241D830C83C8010E941C0D99878887ED
:100CE000009741F0A80160E070E00E944E0EFB8288
:100CF000EA8204C01D821C821B821A82DF91CF917E
:100D00001F910F91FF90EF900895CF93DF93EC0127
:100D100088859985009711F00E94B10D8E8187FD1D
:100D200005C060E0DF91CF910C943002DF91CF914C
:100D300008951F920F920FB60F9211242F933F9395
:100D40004F935F936F937F938F939F93AF93BF93D3
:100D5000EF93FF938BE591E00E942701FF91EF91C4
:100D6000BF91AF919F918F917F916F915F914F91C3
:100D70003F912F910F900FBE0F901F9018951F92CB
:100D80000F920FB60F9211242F938F939F93EF938F
:100D9000FF93E0916B01F0916C018081E091710112
:100DA000F091720182FD12C09081809174018F5F79
:100DB0008F7320917501821751F0E0917401F0E07A
:100DC000E55AFE4F958F8093740101C08081FF9199
:100DD000EF919F918F912F910F900FBE0F901F90C9
:100DE00018951F920F920FB60F9211242F933F93D5
:100DF0008F939F93AF93BF9380914B0190914C0140
:100E0000A0914D01B0914E0130914A0123E0230F92
:100E10002D3720F40196A11DB11D05C026E8230F32
:100E20000296A11DB11D20934A0180934B0190931E
:100E30004C01A0934D01B0934E0180914F019091D0
:100E40005001A0915101B09152010196A11DB11D17
:100E500080934F0190935001A0935101B0935201A0
:100E6000BF91AF919F918F913F912F910F900FBEA6
:100E70000F901F9018951F93CF93DF93EBE5F1E050
:100E80001382128288EE93E0A0E0B0E08483958321
:100E9000A683B7838CE091E09183808385EC90E01A
:100EA0009587848784EC90E09787868780EC90E034
:100EB000918B808B81EC90E0938B828B82EC90E025
:100EC000958B848B86EC90E0978B868B118E128E9F
:100ED000138E148E8FEF90E090934502809344021E
:100EE000ECE3F2E0148215821682178280E090E033
:100EF000A0E8BFE380839183A283B383C4E3D2E0FD
:100F000083E090E09983888384E090E09B838A83E8
:100F100085E090E09D838C8360E083E00E94300256
:100F200060E08A810E94300260E08C810E94300281
:100F3000C0E3D2E08EE090E0998388830E946C0247
:100F40009B838A83CCE2D2E08FE090E09983888310
:100F50000E946C029B838A83C8E2D2E080E190E029
:100F6000998388830E946C029B838A83C2E2D2E0C9
:100F700084E690E09983888383E190E09B838A8371
:100F80000E946C029D838C83EDE0F2E01182178257
:100F90001186108616861786108A118A13E0158727
:100FA000C1E0C2871386D2E0D487C0836CE370E0CF
:100FB000CF010E944B066AE08DE092E00E94DB03C5
:100FC000E8EFF1E0118217821186108616861786E7
:100FD000108A118A1587C2871386D487C0836CE371
:100FE00070E0CF010E944B066BE088EF91E0DF914B
:100FF000CF911F910C94DB03CF93DF93CDB7DEB776
:10100000A0970FB6F894DEBF0FBECDBF789484B51D
:10101000826084BD84B5816084BD85B5826085BDF4
:1010200085B5816085BD80916E00816080936E0082
:101030001092810080918100826080938100809174
:101040008100816080938100809180008160809325
:1010500080008091B10084608093B1008091B000E5
:1010600081608093B00080917A00846080937A00E0
:1010700080917A00826080937A0080917A0081600A
:1010800080937A0080917A00806880937A00109231
:10109000C100E0916B01F0916C0182E08083E091EE
:1010A0006701F09168011082E0916901F0916A0195
:1010B00087E6808310927301E0916F01F0917001D7
:1010C00086E08083E0916D01F0916E018081806106
:1010D0008083E0916D01F0916E0180818860808352
:1010E000E0916D01F0916E01808180688083E091D4
:1010F0006D01F0916E0180818F7D808380E392E0AD
:101100000E94E80480E392E00E94E80480E392E019
:101110000E94E80414E600E01093590100935A017C
:101120002091530130915401409155015091560145
:101130006091570170915801812F90E00E940B053A
:10114000209353013093540140935501509356011D
:1011500060935701709358018093590190935A01FD
:1011600060E08DE00E94300210932202009323027F
:1011700088EF91E00E948D0088EF91E00E94D704F3
:1011800088EF91E00E940C048DE092E00E948D00B7
:101190008DE092E00E94D7048DE092E00E940C0462
:1011A0009BEE292E312CEE24EA94F12C0E940C02A5
:1011B0008130910569F42091000130910101232BC8
:1011C00039F490930101809300018DE191E05BC1BE
:1011D0000E940C02019739F4809100019091010165
:1011E000019709F44AC18091000190910101009793
:1011F00019F0019721F13EC1209153013091540122
:1012000040915501509156016091570170915801DC
:101210008091590190915A010E940B05209353012E
:1012200030935401409355015093560160935701F8
:10123000709358018093590190935A01F7C080E34D
:1012400092E00E94E804B1010E94FB0C072E000C02
:10125000880B990B0E94C50B20E030E040EA51E476
:101260000E947A0C4B015C0120E030E040EA51E43E
:101270000E94160B87FF17C020E030E040E05FE3DC
:10128000C501B4010E94160B87FF05C0812C912C6B
:10129000A12C8FE3B82E80923C0290923D02A09246
:1012A0003E02B0923F02A0905301B0905401C09012
:1012B0005501D0905601009157011091580180902E
:1012C000590190905A014090400250904102609024
:1012D00042027090430220E030E04FE754E4C30143
:1012E000B2010E94750C18164CF410924002109234
:1012F0004102109242021092430214C020913C021B
:1013000030913D0240913E0250913F02C301B20133
:101310000E94AA0A609340027093410280934202A5
:1013200090934302409040025090410260904202EC
:101330007090430220E030E0A901C301B2010E9495
:10134000750C87FD57C020E030E04FE754E4C3013F
:10135000B2010E94160B87FF4DC020E030E04FE73E
:1013600053E4C301B2010E94160B87FF09C0C301F9
:10137000B2010E948D0B4B015701A61AB70A3AC061
:1013800020E030E04FEF53E4C301B2010E94160B9E
:1013900087FF0DC0C301B2010E948D0BCB01B701C5
:1013A0000E94FB0C8C016701C81AD90A23C020E0F7
:1013B00030E44FE354E4C301B2010E94160B87FFEF
:1013C0000DC0C301B2010E948D0BCB01B7010E9479
:1013D000FB0C5C014701881A990A0CC0C301B201D9
:1013E0000E948D0BCB01B7010E94FB0C6C018701A1
:1013F000081B190B2A2DB0925401A09253014C2DB9
:10140000D0925601C0925501602F1093580100935D
:10141000570190925A018092590130915401509194
:10142000560170915801882D90915A010E94E20254
:1014300089019A01AB01BC0188EF91E00E94760519
:101440002091530130915401409155015091560122
:1014500060915701709158018091590190915A0102
:101460000E94E20289019A01AB01BC018DE092E089
:101470000E9476050E94B10199CE1092010110924E
:10148000000185E391E00E942706ADCE88EF91E050
:101490000E9485068DE092E00C948506052E97FB50
:1014A0001EF400940E94650A57FD07D00E94780A36
:1014B00007FC03D04EF40C94650A50954095309586
:1014C00021953F4F4F4F5F4F0895909580957095B0
:1014D00061957F4F8F4F9F4F08950E949A0AA59F55
:1014E000900DB49F900DA49F800D911D112408951F
:1014F000A1E21A2EAA1BBB1BFD010DC0AA1FBB1F18
:10150000EE1FFF1FA217B307E407F50720F0A21B89
:10151000B30BE40BF50B661F771F881F991F1A94F6
:1015200069F760957095809590959B01AC01BD0120
:10153000CF010895A29FB001B39FC001A39F700D7A
:10154000811D1124911DB29F700D811D1124911DCB
:1015500008955058BB27AA270E94C10A0C943B0C3F
:101560000E942D0C38F00E94340C20F039F49F3F7B
:1015700019F426F40C942A0C0EF4E095E7FB0C9475
:10158000240CE92F0E944C0C58F3BA17620773071A
:101590008407950720F079F4A6F50C946E0C0EF4F0
:1015A000E0950B2EBA2FA02D0B01B90190010C0173
:1015B000CA01A0011124FF27591B99F0593F50F48B
:1015C000503E68F11A16F040A22F232F342F4427E3
:1015D000585FF3CF469537952795A795F0405395DB
:1015E000C9F77EF41F16BA0B620B730B840BBAF0AB
:1015F0009150A1F0FF0FBB1F661F771F881FC2F716
:101600000EC0BA0F621F731F841F48F48795779529
:101610006795B795F7959E3F08F0B0CF9395880FE3
:1016200008F09927EE0F9795879508950E94000C72
:1016300008F481E008950E942F0B0C943B0C0E944B
:10164000340C58F00E942D0C40F029F45F3F29F033
:101650000C94240C51110C946F0C0C942A0C0E94C5
:101660004C0C68F39923B1F3552391F3951B550B5B
:10167000BB27AA2762177307840738F09F5F5F4F65
:10168000220F331F441FAA1FA9F335D00E2E3AF0A4
:10169000E0E832D091505040E695001CCAF72BD0BC
:1016A000FE2F29D0660F771F881FBB1F261737070D
:1016B0004807AB07B0E809F0BB0B802DBF01FF273F
:1016C00093585F4F3AF09E3F510578F00C94240CEC
:1016D0000C946F0C5F3FE4F3983ED4F386957795B6
:1016E0006795B795F7959F5FC9F7880F911D9695F8
:1016F000879597F90895E1E0660F771F881FBB1F54
:10170000621773078407BA0720F0621B730B840B00
:10171000BA0BEE1F88F7E09508950E94940B689429
:10172000B1110C946F0C08950E94540C88F09F57CF
:1017300098F0B92F9927B751B0F0E1F0660F771FF5
:10174000881F991F1AF0BA95C9F714C0B13091F0EB
:101750000E946E0CB1E008950C946E0C672F782FE8
:101760008827B85F39F0B93FCCF3869577956795B0
:10177000B395D9F73EF490958095709561957F4F1C
:101780008F4F9F4F0895E89409C097FB3EF49095C2
:101790008095709561957F4F8F4F9F4F9923A9F04A
:1017A000F92F96E9BB279395F695879577956795D9
:1017B000B795F111F8CFFAF4BB0F11F460FF1BC01D
:1017C0006F5F7F4F8F4F9F4F16C0882311F096E9B0
:1017D00011C0772321F09EE8872F762F05C066235E
:1017E00071F096E8862F70E060E02AF09A95660F17
:1017F000771F881FDAF7880F9695879597F90895D0
:10180000990F0008550FAA0BE0E8FEEF1616170611
:10181000E807F907C0F012161306E407F50798F079
:10182000621B730B840B950B39F40A2661F0232B92
:10183000242B252B21F408950A2609F4A140A6950E
:101840008FEF811D811D089597F99F6780E870E0F3
:1018500060E008959FEF80EC089500240A94161626
:10186000170618060906089500240A94121613068E
:10187000140605060895092E0394000C11F488231C
:1018800052F0BB0F40F4BF2B11F460FF04C06F5F38
:101890007F4F8F4F9F4F089557FD9058440F551F0E
:1018A00059F05F3F71F04795880F97FB991F61F0E2
:1018B0009F3F79F087950895121613061406551F59
:1018C000F2CF4695F1DF08C0161617061806991FC5
:1018D000F1CF86957105610508940895E894BB27BA
:1018E00066277727CB0197F908950E94000C08F42A
:1018F0008FEF08950E948D0C0C943B0C0E942D0CD0
:1019000038F00E94340C20F0952311F00C94240C34
:101910000C942A0C11240C946F0C0E944C0C70F344
:10192000959FC1F3950F50E0551F629FF001729F84
:10193000BB27F00DB11D639FAA27F00DB11DAA1F93
:10194000649F6627B00DA11D661F829F2227B00DE0
:10195000A11D621F739FB00DA11D621F839FA00D6B
:10196000611D221F749F3327A00D611D231F849FBB
:10197000600D211D822F762F6A2F11249F57504012
:101980009AF0F1F088234AF0EE0FFF1FBB1F661F8D
:10199000771F881F91505040A9F79E3F510580F056
:1019A0000C94240C0C946F0C5F3FE4F3983ED4F33A
:1019B000869577956795B795F795E7959F5FC1F7FA
:1019C000FE2B880F911D9695879597F90895AA1B70
:1019D000BB1B51E107C0AA1FBB1FA617B70710F01A
:1019E000A61BB70B881F991F5A95A9F7809590954C
:1019F000BC01CD01089597FB072E16F4009407D083
:101A000077FD09D00E94E70C07FC05D03EF49095C5
:101A100081959F4F0895709561957F4F08950E941D
:101A20009A0AB7FF0895821B930B0895EE0FFF1FCC
:101A30000590F491E02D0994CF93DF9382309105C6
:101A400010F482E090E0E0914802F091490220E039
:101A500030E0C0E0D0E0309711F14081518148176B
:101A60005907C0F04817590761F482819381209784
:101A700019F09B838A832BC090934902809348027C
:101A800026C02115310519F04217530718F49A01A1
:101A9000BE01DF01EF010280F381E02DDCCF2115D3
:101AA000310509F1281B390B2430310590F41296C9
:101AB0008D919C9113976115710521F0FB01938322
:101AC000828304C09093490280934802FD013296BC
:101AD00044C0FD01E20FF31F81939193225031091D
:101AE0002D933C933AC02091460230914702232B1C
:101AF00041F4209104013091050130934702209375
:101B0000460220910201309103012115310541F473
:101B10002DB73EB74091060150910701241B350BAC
:101B2000E0914602F0914702E217F307A0F42E1B62
:101B30003F0B2817390778F0AC014E5F5F4F241731
:101B4000350748F04E0F5F1F5093470240934602FF
:101B50008193919302C0E0E0F0E0CF01DF91CF915B
:101B600008950F931F93CF93DF93009709F48CC0D0
:101B7000FC013297138212820091480210914902AF
:101B80000115110581F420813181820F931F20916D
:101B90004602309147022817390779F5F09347023A
:101BA000E093460271C0D80140E050E0AE17BF0795
:101BB00050F412962D913C911397AD0121153105EA
:101BC00009F1D901F3CF9D01DA01338322836081CA
:101BD0007181860F971F8217930769F4EC012881A2
:101BE0003981260F371F2E5F3F4F318320838A8133
:101BF0009B8193838283452B29F4F0934902E093E0
:101C0000480242C01396FC93EE931297ED0149915E
:101C100059919E01240F351FE217F30771F480815B
:101C20009181840F951F029611969C938E938281C9
:101C3000938113969C938E931297E0E0F0E0D80185
:101C400012968D919C911397009719F0F8018C01D1
:101C5000F6CF8D919C9198012E5F3F4F820F931F7D
:101C600020914602309147022817390769F43097CE
:101C700029F4109249021092480202C01382128283
:101C80001093470200934602DF91CF911F910F916D
:101C9000089581E090E0F8940C94550EDC0101C0A9
:101CA0006D9341505040E0F7089510E0C2E6D0E057
:101CB00004C0FE010E94160D2196C336D107C9F754
:041CC000F894FFCFC6
:101CC400010000004A028000000000004801B10049
:101CD400E0008F011101EF0003010D0A0073776921
:101CE400746368656420746F2063656E7465722024
:101CF4006D6F646500737769746368656420746FDD
:0A1D0400207570206D6F646500000B
:107E0000112484B714BE81FFF0D085E080938100F7
:107E100082E08093C00088E18093C10086E0809377
:107E2000C20080E18093C4008EE0C9D0259A86E02C
:107E300020E33CEF91E0309385002093840096BBD3
:107E4000B09BFECF1D9AA8958150A9F7CC24DD24C4
:107E500088248394B5E0AB2EA1E19A2EF3E0BF2EE7
:107E6000A2D0813461F49FD0082FAFD0023811F036
:107E7000013811F484E001C083E08DD089C08234E0
:107E800011F484E103C0853419F485E0A6D080C0E4
:107E9000853579F488D0E82EFF2485D0082F10E0AE
:107EA000102F00270E291F29000F111F8ED06801E7
:107EB0006FC0863521F484E090D080E0DECF843638
:107EC00009F040C070D06FD0082F6DD080E0C81688
:107ED00080E7D80618F4F601B7BEE895C0E0D1E017
:107EE00062D089930C17E1F7F0E0CF16F0E7DF06D8
:107EF00018F0F601B7BEE89568D007B600FCFDCFD4
:107F0000A601A0E0B1E02C9130E011968C91119780
:107F100090E0982F8827822B932B1296FA010C0160
:107F200087BEE89511244E5F5F4FF1E0A038BF0790
:107F300051F7F601A7BEE89507B600FCFDCF97BE46
:107F4000E89526C08437B1F42ED02DD0F82E2BD052
:107F50003CD0F601EF2C8F010F5F1F4F84911BD097
:107F6000EA94F801C1F70894C11CD11CFA94CF0C13
:107F7000D11C0EC0853739F428D08EE10CD085E9AC
:107F80000AD08FE07ACF813511F488E018D01DD067
:107F900080E101D065CF982F8091C00085FFFCCF94
:107FA0009093C60008958091C00087FFFCCF809118
:107FB000C00084FD01C0A8958091C6000895E0E648
:107FC000F0E098E1908380830895EDDF803219F02E
:107FD00088E0F5DFFFCF84E1DECF1F93182FE3DFCA
:107FE0001150E9F7F2DF1F91089580E0E8DFEE27F6
:047FF000FF270994CA
:027FFE00040479
:0400000300007E007B
:00000001FF