:100000000C9463000C948B000C948B000C948B006C
:100010000C948B000C948B000C948B000C948B0034
:100020000C948B000C948B000C948B000C948B0024
:100030000C948B000C948B000C948B000C948B0014
:100040000C942C070C948B000C94FA060C94D40698
:100050000C948B000C948B000C948B000C948B00F4
:100060000C948B000C948B000000000024002700EF
:100070002A0000000000250028002B0000000000DE
:1000800023002600290004040404040404040202DA
:100090000202020203030303030301020408102007
:1000A0004080010204081020010204081020000012
:1000B0000008000201000003040700000000000027
:1000C00000007607870B11241FBECFEFD8E0DEBFFC
:1000D000CDBF11E0A0E0B1E0E0E5FFE102C0059096
:1000E0000D92A435B107D9F722E0A4E5B1E001C033
:1000F0001D92A635B207E1F710E0C2E6D0E004C0D9
:100100002197FE010E945C0EC136D107C9F70E94FB
:1001100037080C949B0F0C940000FC016781673436
:10012000F9F020853185615031F070E08FEF96E471
:100130000E942D0E02C060E070E0D901448155811B
:10014000CD01821B930B8417950740F44C91469F79
:10015000C001479F900D11249D93F0CF87E48783C2
:100160000895CF92DF92EF92FF920F931F93CF9358
:10017000DF936C017A018B01C0E0D0E0CE15DF0582
:1001800089F0D8016D918D01D601ED91FC9101901E
:10019000F081E02DC6010995892B11F47E0102C082
:1001A0002196ECCFC701DF91CF911F910F91FF9066
:1001B000EF90DF90CF900895089580E090E008954B
:1001C000FC01538D448D252F30E0842F90E0821B5D
:1001D000930B541710F0CF96089501970895FC01E2
:1001E000918D828D981761F0828DDF01A80FB11D6E
:1001F0005D968C91928D9F5F9F73928F90E0089592
:100200008FEF9FEF0895FC01918D828D981731F04B
:10021000828DE80FF11D858D90E008958FEF9FEF9F
:100220000895FC01918D228D892F90E0805C9F4F75
:10023000821B91098F739927089587E691E00E94A8
:10024000110121E0892B09F420E0822F0895FC019F
:10025000848DDF01A80FB11DA35ABF4F2C91848D4F
:1002600090E001968F739927848FA689B7892C9384
:10027000A089B1898C9180648C93938D848D98131F
:1002800006C00288F389E02D80818F7D80830895E8
:10029000EF92FF920F931F93CF93DF93EC0181E0D6
:1002A000888F9B8D8C8D981305C0E889F989808192
:1002B00085FD24C0F62E0B8D10E00F5F1F4F0F73CE
:1002C0001127E02E8C8DE8120CC00FB607FCFACF78
:1002D000E889F989808185FFF5CFCE010E94270149
:1002E000F1CF8B8DFE01E80FF11DE35AFF4FF08235
:1002F0000B8FEA89FB898081806207C0EE89FF89C4
:100300006083E889F98980818064808381E090E05E
:10031000DF91CF911F910F91FF90EF900895CF93B0
:10032000DF93EC01888D8823C9F0EA89FB898081FD
:1003300085FD05C0A889B9898C9186FD0FC00FB6CF
:1003400007FCF5CF808185FFF2CFA889B9898C9110
:1003500085FFEDCFCE010E942701E7CFDF91CF913E
:10036000089580E090E0892B29F00E941D01811101
:100370000C9400000895833081F028F4813099F0C6
:100380008230A1F008958730A9F08830B9F0843028
:10039000D1F4809180008F7D03C0809180008F77A1
:1003A00080938000089584B58F7702C084B58F7DD7
:1003B00084BD08958091B0008F7703C08091B00014
:1003C0008F7D8093B0000895CF93DF93EBEBF0E047
:1003D0008491E7EAF0E0D491E3E9F0E0C491CC2322
:1003E00091F081110E94BB01EC2FF0E0EE0FFF1F96
:1003F000E458FF4FA591B491EC91ED2381E090E09A
:1004000021F480E002C080E090E0DF91CF91089578
:100410001F93CF93DF93282F30E0F901E255FF4F70
:100420008491F901E656FF4FD491F901EA57FF4F45
:10043000C491CC23C9F0162F81110E94BB01EC2F6F
:10044000F0E0EE0FFF1FEE58FF4FA591B4918FB76C
:10045000F894111105C09C91ED2FE095E92302C09D
:10046000EC91ED2BEC938FBFDF91CF911F9108950D
:10047000CF93DF9390E0FC01E656FF4F2491FC01FF
:10048000EA57FF4F8491882361F190E0880F991F0C
:10049000FC01E859FF4FC591D491FC01EE58FF4F84
:1004A000A591B491611109C09FB7F89488812095F6
:1004B00082238883EC912E230BC0623061F49FB7B6
:1004C000F8943881822F809583238883EC912E2B9A
:1004D0002C939FBF06C08FB7F894E8812E2B2883FA
:1004E0008FBFDF91CF9108958E3008F08E508770C6
:1004F000806480937C0080917A00806480937A008D
:1005000080917A0086FDFCCF80917800209179005F
:1005100090E0922B08953FB7F89480915901909103
:100520005A01A0915B01B0915C0126B5A89B05C062
:100530002F3F19F00196A11DB11D3FBFBA2FA92F62
:10054000982F8827820F911DA11DB11DBC01CD01DF
:1005500042E0660F771F881F991F4A95D1F70895CB
:100560008F929F92AF92BF92CF92DF92EF92FF92C3
:100570006B017C010E948B024B015C01C114D10410
:10058000E104F104F1F00E948B02DC01CB01881937
:100590009909AA09BB09883E9340A105B10570F3EA
:1005A00021E0C21AD108E108F10888EE880E83E044
:1005B000981EA11CB11CC114D104E104F10419F767
:1005C000DDCFFF90EF90DF90CF90BF90AF909F90E6
:1005D0008F9008954F925F926F927F928F929F9229
:1005E000AF92BF92CF92DF92EF92FF920F931F9341
:1005F000CF93DF93CDB7DEB760970FB6F894DEBF29
:100600000FBECDBF29873A874B875C876D877E8772
:100610008F87988BA984BA84CB84DC84ED84FE8494
:100620000F851889809130020E9474024C0120E1EC
:10063000622E712C809130020E947402880E991EE5
:1006400062E070E080E090E00E94B00281E0681A11
:10065000710881F7940197FE02C0215F3F4F94E03B
:10066000359527959A95E1F7E0912E02F0912F02AA
:10067000E217F30734F02530310524F425E030E0AB
:1006800001C09F01C901330FAA0BBB0B9C01AD0137
:100690002550310941095109A6EEB0E00E94AE0B88
:1006A0002F01FF0F66087708A30192012550310939
:1006B000410951090E948F0B37FF05C01092330288
:1006C0001092320204C030933302209332026091C0
:1006D000320270913302072E000C880B990B0E9496
:1006E000060D20E030E046E653E40E945C0C2B014E
:1006F0003C0120E030E040E85FE30E94B60D1816B0
:1007000034F4412C512C80E8682E8FE3782EB5010B
:10071000BB0C880B990B0E94060DA30192010E944D
:10072000BB0D0E94CE0CB62E7A836983B601DD0C18
:10073000880B990B0E94060DA30192010E94BB0D2C
:100740000E94CE0CD62E7C836B83B701FF0C880BE6
:10075000990B0E94060DA30192010E94BB0D0E94FD
:10076000CE0CF62E7E836D83B801110F880B990B8A
:100770000E94060DA30192010E94BB0D0E94CE0CA7
:10078000862F262F372F38872F832B2D3A814D2DFB
:100790005C816F2D7E81988560960FB6F894DEBFE0
:1007A0000FBECDBFDF91CF911F910F91FF90EF90C2
:1007B000DF90CF90BF90AF909F908F907F906F9081
:1007C0005F904F9008951F93CF93DF93EC01162F06
:1007D0008981882331F08E8187FD03C060E00E940B
:1007E00038021E838981882341F061E0812F0E94B5
:1007F000380260E0812F0E940802812F90E0FC0106
:10080000EA57FF4FE491F0E0EE0FFF1FEE58FF4F65
:10081000259134913B8B2A8BFC01E656FF4FE491E6
:10082000EC8BDF91CF911F910895CF92DF92EF92E1
:10083000FF920F931F93CF93DF93CDB7DEB7299726
:100840000FB6F894DEBF0FBECDBF8C01DC01189649
:100850008D919C911997892B09F4A3C00E948B025A
:10086000F801C684D784E088F188DC01CB018C19BB
:100870009D09AE09BF098C329140A105B10570F305
:10088000F894D80114968D919C9115979A83898339
:100890001896ED91FC9119977F01BFEFEB1AFB0AB7
:1008A00080818987F80190810288F389E02DD80141
:1008B00054968C91992309F430C09081982B988795
:1008C0009081809589238F838F818C8388E08B83AF
:1008D00058856F8149853B812C8189819A81D70117
:1008E000508347FD252F3A952083262F39F0441F4A
:1008F00000C000006083000000C0F2CF38E04D91DE
:1009000060830000019761F7D8015396FC93EE9342
:10091000529749873B832C833AC09081982B9887C4
:100920009081809589238F838F818E8388E08D834A
:1009300058856F8149853D812E8189819A81D701B2
:10094000508347FD252F00C000C0208300C000C099
:1009500000C000C000C060830000262F3A9541F01F
:10096000441F000000C000C000C000C000C0E8CFAD
:1009700038E04D9100C0608300C0019709F7D801AD
:100980005396FC93EE93529749873D832E839A8327
:10099000898378940E948B02F80166877787808B21
:1009A000918B29960FB6F894DEBF0FBECDBFDF91B5
:1009B000CF911F910F91FF90EF90DF90CF9008950E
:1009C000CF93DF93EC018E8187FD07C061E00E9429
:1009D000380260E08E810E94080281E08983DF9105
:1009E000CF910895CF93DF93EC0188810E94740228
:1009F0002BEE30E0DC010E94550E2CEB32E040E0A3
:100A000050E00E948F0B8A819B81FC013196E21796
:100A1000F30724F001972817390714F43B832A833E
:100A20008A819B81DF91CF910895AF92BF92CF923F
:100A3000DF92EF92FF920F931F93CF93DF93CDB787
:100A4000DEB760970FB6F894DEBF0FBECDBF8F87BD
:100A5000988B8CE392E00E94F2047C0188E392E0A0
:100A60000E94F2045C0184E392E00E94F2048C0193
:100A70002FEF30E0D7010E94550E2BEEC22ED12C65
:100A8000E12CF12CA70196010E948F0B3A87298750
:100A90002FEF30E0D5010E94550EA70196010E946C
:100AA0008F0B3C872B872FEF30E0D8010E94550E2B
:100AB000A70196010E948F0B3E872D8788E0FE01DB
:100AC0003996DE01119601900D928A95E1F7298100
:100AD0003A814B815C816D817E818F8198856096A2
:100AE0000FB6F894DEBF0FBECDBFDF91CF911F913F
:100AF0000F91FF90EF90DF90CF90BF90AF9008954F
:100B00004F925F926F927F928F929F92AF92BF921D
:100B1000CF92DF92EF92FF920F931F93CF93DF93C9
:100B2000CDB7DEB728970FB6F894DEBF0FBECDBFA6
:100B30007C01822F942F10E020E030E098011127F3
:100B4000002758016901D62AB601A501492B582B67
:100B5000562E452EB42E472F552766277727642E0D
:100B60009A0160E070E0E0E0F0E080E090E0D70122
:100B700012964D915C9113978417950708F052C017
:100B8000D70117967C90772069F0579CA00111241B
:100B9000852E479CA0011124952EB79CA0011124FD
:100BA000A52E03C0AB2C942C852CD7011D961C912F
:100BB0001D971A960C911A9718964D915C9119975A
:100BC000101303C04E0F5F1F11C0460F571F6A015D
:100BD000C10ED11C8601772031F0729E6001739E98
:100BE000D00C112401C0D62CD801DC92D7011A9662
:100BF0001C916A01C10ED11CD6018C92D7011B96A3
:100C00001C916A01C10ED11CD6019C92D7011C9681
:100C10001C91410F511DDA01AC92019633966C5F25
:100C20007F4FA5CF61E070E080E090E00E94B002CD
:100C3000C70128960FB6F894DEBF0FBECDBFDF9177
:100C4000CF911F910F91FF90EF90DF90CF90BF90C9
:100C5000AF909F908F907F906F905F904F900C948B
:100C60001504009769F0FC0101900020E9F7319725
:100C7000AF01481B590BBC0187E691E00C94B10011
:100C800080E090E008958F929F92AF92BF920F9371
:100C90001F93CF93DF93CDB7DEB7A1970FB6F8942C
:100CA000DEBF0FBECDBF19A2423008F44AE08E016C
:100CB0000F5D1F4F842E912CA12CB12CA501940106
:100CC0000E94B90BE62FB901CA0101501109EA309F
:100CD00014F4E05D01C0E95CD801EC93232B242BD4
:100CE000252B61F7C8010E943106A1960FB6F89432
:100CF000DEBF0FBECDBFDF91CF911F910F91BF908F
:100D0000AF909F908F9008950E948F0FEF92FF9267
:100D10000F931F93CF93DF93EC017B018885998517
:100D2000009711F00E94F70E9D858A85981719F09B
:100D300084E090E002C083E090E08E9D80018F9D72
:100D4000100D9E9D100D11241D830C83C8010E945F
:100D5000620E99878887009741F0A80160E070E0F3
:100D60000E94940FFB82EA8204C01D821C821B82B7
:100D70001A82DF91CF911F910F91FF90EF9008950C
:100D8000CF93DF93EC0188859985009711F00E943D
:100D9000F70E8E8187FD05C060E0DF91CF910C9446
:100DA0003802DF91CF9108951F920F920FB60F92E4
:100DB00011242F933F934F935F936F937F938F9360
:100DC0009F93AF93BF93EF93FF9387E691E00E94C9
:100DD0002701FF91EF91BF91AF919F918F917F91EB
:100DE0006F915F914F913F912F910F900FBE0F9098
:100DF0001F9018951F920F920FB60F9211242F93E8
:100E00008F939F93EF93FF93E0917701F091780197
:100E10008081E0917D01F0917E0182FD12C0908180
:100E2000809180018F5F8F7320918101821751F033
:100E3000E0918001F0E0E959FE4F958F80938001A9
:100E400001C08081FF91EF919F918F912F910F9021
:100E50000FBE0F901F9018951F920F920FB60F9212
:100E600011242F933F938F939F93AF93BF938091C0
:100E7000550190915601A0915701B09158013091C0
:100E8000540123E0230F2D3720F40196A11DB11D3D
:100E900005C026E8230F0296A11DB11D2093540121
:100EA0008093550190935601A0935701B093580138
:100EB0008091590190915A01A0915B01B0915C0120
:100EC0000196A11DB11D8093590190935A01A093E1
:100ED0005B01B0935C01BF91AF919F918F913F9166
:100EE0002F910F900FBE0F901F9018951F93CF93C7
:100EF000DF93E7E6F1E01382128288EE93E0A0E050
:100F0000B0E084839583A683B7838AE091E09183E0
:100F1000808385EC90E09587848784EC90E09787C8
:100F2000868780EC90E0918B808B81EC90E0938BB6
:100F3000828B82EC90E0958B848B86EC90E0978B93
:100F4000868B118E128E138E148E8FEF90E09093FD
:100F5000510280935002E8E4F2E014821582168276
:100F6000178280E090E0A0E8BFE380839183A283B2
:100F7000B383C0E4D2E083E090E09983888384E087
:100F800090E09B838A8385E090E09D838C8360E082
:100F900083E00E94380260E08A810E94380260E0AB
:100FA0008C810E943802CCE3D2E08EE090E09983FD
:100FB00088830E9474029B838A83C8E3D2E08FE017
:100FC00090E0998388830E9474029B838A83C4E3A0
:100FD000D2E080E190E0998388830E9474029B8331
:100FE0008A83CEE2D2E084E690E09983888383E12D
:100FF00090E09B838A830E9474029D838C83E9E145
:10100000F2E0118217821186108616861786108AE2
:10101000118A13E01587C1E0C2871386D2E0D48716
:10102000C0836CE370E0CF010E9486066AE089E12C
:1010300092E00E94E303E4E0F2E01182178211865D
:10104000108616861786108A118A1587C28713861E
:10105000D487C0836CE370E0CF010E9486066BE00A
:1010600084E092E0DF91CF911F910C94E303CF9342
:10107000DF93CDB7DEB7A2970FB6F894DEBF0FBEF1
:10108000CDBF789484B5826084BD84B5816084BD11
:1010900085B5826085BD85B5816085BD80916E0016
:1010A000816080936E001092810080918100826047
:1010B0008093810080918100816080938100809184
:1010C00080008160809380008091B1008460809373
:1010D000B1008091B00081608093B00080917A006F
:1010E000846080937A0080917A00826080937A0095
:1010F00080917A00816080937A0080917A00806884
:1011000080937A001092C100E0917701F09178010C
:1011100082E08083E0917301F09174011082E0918C
:101120007501F091760187E6808310927F01E0914E
:101130007B01F0917C0186E08083E0917901F09160
:101140007A01808180618083E0917901F0917A0158
:10115000808188608083E0917901F0917A018081BB
:1011600080688083E0917901F0917A0180818F7DA0
:1011700080838CE392E00E94F2048CE392E00E9470
:10118000F2048CE392E00E94F20414E600E0109373
:1011900063010093640120915D0130915E014091F3
:1011A0005F01509160016091610170916201812F36
:1011B00090E00E94150520935D0130935E014093FD
:1011C0005F015093600160936101709362018093AD
:1011D00063019093640160E08DE00E9438021093F7
:1011E0002E0200932F0284E092E00E948D0084E0A2
:1011F00092E00E94E00484E092E00E94150489E1FC
:1012000092E00E948D0089E192E00E94E00489E171
:1012100092E00E941504AA24AA94B12C0E94E40131
:101220008130910569F42091650130916601232B8D
:1012300039F4909366018093650187E291E060C282
:101240000E94E401019739F4809165019091660153
:10125000019709F44FC28091650190916601009752
:1012600021F0019709F454C042C261E087E00E9476
:10127000080220915D0130915E0140915F01509123
:1012800060016091610170916201809163019091B0
:1012900064010E94150520935D0130935E01409327
:1012A0005F015093600160936101709362018093CC
:1012B0006301909364010E94EA0229833A834B837D
:1012C0005C836D837E838F83988789019A01AB014C
:1012D000BC0184E092E00E94800520915D01309184
:1012E0005E0140915F0150916001609161017091D8
:1012F000620180916301909164010E94EA02298752
:101300003A874B875C876D877E878F87988BE7C18D
:101310008CE392E00E94F204BC01990F880B990BB8
:101320000E94060D20E030E04BE653E40E945C0C86
:101330006B017C0120E030E040E85FE30E94570C45
:1013400087FF21C020E030E0A901C701B6010E945B
:10135000570C181644F08DECC82E8CECD82E8CE46B
:10136000E82E8DE3F82E20E030E048EC51E4C70190
:10137000B6010E94BB0D60934802709349028093AE
:101380004A0290934B0280905D0190905E01009123
:101390005F011091600120906101309062018091A5
:1013A0006301909164019AA389A3C0904C02D090EC
:1013B0004D02E0904E02F0904F0220E030E04FE707
:1013C00054E4C701B6010E94B60D18164CF41092F1
:1013D0004C0210924D0210924E0210924F0214C015
:1013E000209148023091490240914A0250914B02AB
:1013F000C701B6010E94EB0B60934C0270934D0243
:1014000080934E0290934F02C0904C02D0904D02B8
:10141000E0904E02F0904F02A7019601C701B6017D
:101420000E94280E882319F088E191E01AC0260155
:101430003701E89477F82FEF3FEF4FE75FE7C301FD
:10144000B2010E94280E81110FC02FEF3FEF4FE72E
:101450005FE7C301B2010E94570C18162CF48CE10F
:1014600091E00E94310682C02FEF3FEF4FE75FE42B
:10147000C701B6010E94B60D18161CF480E291E077
:10148000F0CF2FEF3FEF4FE75FECC701B6010E94AF
:10149000570C87FDF3CF20E030E0A901C701B6016A
:1014A0000E94570C87FF0FC0E0916701F09168011F
:1014B0000190F081E02D6DE287E691E00995F7FA61
:1014C000F094F7F8F0942AE037ED43EA5BE3C701C4
:1014D000B6010E94EB0B2B013C010E94D50C6B0165
:1014E0007C010E94040D9B01AC01C301B2010E946A
:1014F000EA0B2B013C014AE0C701B6010E944306FA
:10150000E0916701F09168010190F081E02D6EE2B9
:1015100087E691E0099520E030E040E251E4C30124
:10152000B2010E94BB0D6B017C010E94D50C2B0106
:10153000612C712C4AE0C301B2010E944306C30131
:10154000B2010E94040D9B01AC01C701B6010E94CB
:10155000EA0B20E030E040E251E40E94BB0D0E9423
:10156000D50C80E090E04AE00E94430684E291E0DE
:101570000E943106C0904C02D0904D02E0904E0285
:10158000F0904F0220E030E0A901C701B6010E94AF
:10159000B60D87FD5AC020E030E04FE754E4C701A4
:1015A000B6010E94570C87FF50C020E030E04FE7A3
:1015B00053E4C701B6010E94570C87FF0AC0C70158
:1015C000B6010E94CE0C7AA369A34501861A970A38
:1015D0003CC020E030E04FEF53E4C701B6010E9469
:1015E000570C87FF0DC0C701B6010E94CE0CCB017E
:1015F000B5010E94410E1C018501081B190B25C075
:1016000020E030E44FE354E4C701B6010E94570CD8
:1016100087FF0FC0C701B6010E94CE0CCB01B501F8
:101620000E94410E4C01C501881999099AA389A30A
:101630000CC0C701B6010E94CE0CCB01B5010E94BF
:10164000410E8C011501281A390A282D90925E014D
:1016500080925D01402F1093600100935F01622D25
:10166000309262012092610189A19AA19093640154
:101670008093630130915E0150916001709162012D
:1016800089A1909164010E94EA02298B3A8B4B8BCD
:101690005C8B6D8B7E8B8F8B988F89019A01AB0150
:1016A000BC0184E092E00E94800520915D013091B0
:1016B0005E0140915F015091600160916101709104
:1016C000620180916301909164010E94EA02298F76
:1016D0003A8F4B8F5C8F6D8F7E8F8F8F98A3890190
:1016E0009A01AB01BC0189E192E00E9480050E9451
:1016F000B10194CD10926601109265018FE391E0E3
:101700000E94310684E291E00E943106A4CD84E07B
:1017100092E00E94C00689E192E00C94C006052E7A
:1017200097FB1EF400940E94A60B57FD07D00E9461
:10173000B90B07FC03D04EF40C94A60B50954095C2
:10174000309521953F4F4F4F5F4F0895909580956D
:10175000709561957F4F8F4F9F4F08950E94DB0BCF
:10176000A59F900DB49F900DA49F800D911D1124F5
:101770000895A1E21A2EAA1BBB1BFD010DC0AA1FD2
:10178000BB1FEE1FFF1FA217B307E407F50720F0EA
:10179000A21BB30BE40BF50B661F771F881F991F65
:1017A0001A9469F760957095809590959B01AC01AE
:1017B000BD01CF010895A29FB001B39FC001A39FB7
:1017C000700D811D1124911DB29F700D811D11247A
:1017D000911D08955058BB27AA270E94020C0C9413
:1017E0007C0D0E946E0D38F00E94750D20F039F4CA
:1017F0009F3F19F426F40C946B0D0EF4E095E7FB73
:101800000C94650DE92F0E948D0D58F3BA176207ED
:1018100073078407950720F079F4A6F50C94AF0DB3
:101820000EF4E0950B2EBA2FA02D0B01B9019001FB
:101830000C01CA01A0011124FF27591B99F0593F3F
:1018400050F4503E68F11A16F040A22F232F342F87
:101850004427585FF3CF469537952795A795F040D5
:101860005395C9F77EF41F16BA0B620B730B840BEA
:10187000BAF09150A1F0FF0FBB1F661F771F881FA2
:10188000C2F70EC0BA0F621F731F841F48F48795FA
:1018900077956795B795F7959E3F08F0B0CF9395EC
:1018A000880F08F09927EE0F9795879508950E9465
:1018B000410D08F481E008950E94700C0C947C0D99
:1018C0000E94750D58F00E946E0D40F029F45F3FA4
:1018D00029F00C94650D51110C94B00D0C946B0D06
:1018E0000E948D0D68F39923B1F3552391F3951B55
:1018F000550BBB27AA2762177307840738F09F5F31
:101900005F4F220F331F441FAA1FA9F335D00E2E9D
:101910003AF0E0E832D091505040E695001CCAF70A
:101920002BD0FE2F29D0660F771F881FBB1F2617CD
:1019300037074807AB07B0E809F0BB0B802DBF01A4
:10194000FF2793585F4F3AF09E3F510578F00C9473
:10195000650D0C94B00D5F3FE4F3983ED4F386958B
:1019600077956795B795F7959F5FC9F7880F911D94
:101970009695879597F90895E1E0660F771F881F80
:10198000BB1F621773078407BA0720F0621B730B33
:10199000840BBA0BEE1F88F7E09508950E94D50CD2
:1019A0006894B1110C94B00D08950E94950D88F0C3
:1019B0009F5798F0B92F9927B751B0F0E1F0660F13
:1019C000771F881F991F1AF0BA95C9F714C0B13054
:1019D00091F00E94AF0DB1E008950C94AF0D672F08
:1019E000782F8827B85F39F0B93FCCF38695779583
:1019F0006795B395D9F73EF490958095709561956C
:101A00007F4F8F4F9F4F0895E89409C097FB3EF496
:101A100090958095709561957F4F8F4F9F4F99233B
:101A2000A9F0F92F96E9BB279395F69587957795B9
:101A30006795B795F111F8CFFAF4BB0F11F460FF79
:101A40001BC06F5F7F4F8F4F9F4F16C0882311F0D1
:101A500096E911C0772321F09EE8872F762F05C0E5
:101A6000662371F096E8862F70E060E02AF09A9580
:101A7000660F771F881FDAF7880F9695879597F975
:101A80000895990F0008550FAA0BE0E8FEEF16160F
:101A90001706E807F907C0F012161306E407F50762
:101AA00098F0621B730B840B950B39F40A2661F0D6
:101AB000232B242B252B21F408950A2609F4A14079
:101AC000A6958FEF811D811D089597F99F6780E886
:101AD00070E060E008959FEF80EC089500240A9480
:101AE0001616170618060906089500240A941216F9
:101AF0001306140605060895092E0394000C11F42C
:101B0000882352F0BB0F40F4BF2B11F460FF04C0D8
:101B10006F5F7F4F8F4F9F4F089557FD9058440F31
:101B2000551F59F05F3F71F04795880F97FB991F3C
:101B300061F09F3F79F087950895121613061406F9
:101B4000551FF2CF4695F1DF08C016161706180686
:101B5000991FF1CF86957105610508940895E89461
:101B6000BB2766277727CB0197F908950E94410D7F
:101B700008F48FEF08950E94CE0D0C947C0D0E9406
:101B80006E0D38F00E94750D20F0952311F00C9425
:101B9000650D0C946B0D11240C94B00D0E948D0DED
:101BA00070F3959FC1F3950F50E0551F629FF001B0
:101BB000729FBB27F00DB11D639FAA27F00DB11DC9
:101BC000AA1F649F6627B00DA11D661F829F222752
:101BD000B00DA11D621F739FB00DA11D621F839FD9
:101BE000A00D611D221F749F3327A00D611D231FAF
:101BF000849F600D211D822F762F6A2F11249F57FD
:101C000050409AF0F1F088234AF0EE0FFF1FBB1FFF
:101C1000661F771F881F91505040A9F79E3F5105BE
:101C200080F00C94650D0C94B00D5F3FE4F3983E8A
:101C3000D4F3869577956795B795F795E7959F5F68
:101C4000C1F7FE2B880F911D9695879597F90895FA
:101C50000E94410D880B990B0895AA1BBB1B51E1F3
:101C600007C0AA1FBB1FA617B70710F0A61BB70B0C
:101C7000881F991F5A95A9F780959095BC01CD01B1
:101C8000089597FB072E16F4009407D077FD09D02E
:101C90000E942D0E07FC05D03EF4909581959F4F34
:101CA0000895709561957F4F08950E94DB0BB7FFF3
:101CB0000895821B930B0895EE0FFF1F0590F4917A
:101CC000E02D0994CF93DF938230910510F482E0E8
:101CD00090E0E0915402F091550220E030E0C0E045
:101CE000D0E0309711F14081518148175907C0F079
:101CF0004817590761F482819381209719F09B83DB
:101D00008A832BC0909355028093540226C02115DC
:101D1000310519F04217530718F49A01BE01DF018B
:101D2000EF010280F381E02DDCCF2115310509F1AF
:101D3000281B390B2430310590F412968D919C911B
:101D400013976115710521F0FB019383828304C011
:101D50009093550280935402FD01329644C0FD01D8
:101D6000E20FF31F81939193225031092D933C93FD
:101D70003AC02091520230915302232B41F420911A
:101D800002013091030130935302209352022091BB
:101D90000001309101012115310541F42DB73EB705
:101DA0004091040150910501241B350BE091520232
:101DB000F0915302E217F307A0F42E1B3F0B2817F4
:101DC000390778F0AC014E5F5F4F2417350748F0B4
:101DD0004E0F5F1F50935302409352028193919391
:101DE00002C0E0E0F0E0CF01DF91CF9108950F93C2
:101DF0001F93CF93DF93009709F48CC0FC013297B7
:101E0000138212820091540210915502011511059E
:101E100081F420813181820F931F209152023091F1
:101E200053022817390779F5F0935302E0935202D1
:101E300071C0D80140E050E0AE17BF0750F41296D1
:101E40002D913C911397AD012115310509F1D9016F
:101E5000F3CF9D01DA013383228360817181860F84
:101E6000971F8217930769F4EC0128813981260FA7
:101E7000371F2E5F3F4F318320838A819B8193835D
:101E80008283452B29F4F0935502E093540242C01B
:101E90001396FC93EE931297ED01499159919E018F
:101EA000240F351FE217F30771F480819181840FAD
:101EB000951F029611969C938E938281938113961F
:101EC0009C938E931297E0E0F0E0D80112968D91EA
:101ED0009C911397009719F0F8018C01F6CF8D9122
:101EE0009C9198012E5F3F4F820F931F20915202C9
:101EF000309153022817390769F4309729F410926A
:101F000055021092540202C013821282109353029F
:101F100000935202DF91CF911F910F91089581E0BC
:101F200090E0F8940C949B0FDC0101C06D9341503C
:101F30005040E0F7089510E0C2E6D0E004C0FE0192
:101F40000E945C0E2196C336D107C9F7F894FFCFE3
:101F5000000056028000000000004801B100E000CF
:101F60008F011101EF0003016E616E00696E660062
:101F70006F7666000D0A0073776974636865642084
:101F8000746F2063656E746572206D6F6465007395
:101F90007769746368656420746F207570206D6F55
:041FA0006465000074
:00000001FF
