:100000000C945E000C9486000C9486000C94860080
:100010000C9486000C9486000C9486000C94860048
:100020000C9486000C9486000C9486000C94860038
:100030000C9486000C9486000C9486000C94860028
:100040000C94B5050C9486000C9483050C945D0506
:100050000C9486000C9486000C9486000C94860008
:100060000C9486000C9486000000000024002700F9
:100070002A0000000000250028002B0004040404CE
:100080000404040402020202020203030303030342
:10009000010204081020408001020408102001021F
:1000A00004081020000000080002010000030407FB
:1000B0000000000000000000FF050F0811241FBE13
:1000C000CFEFD8E0DEBFCDBF11E0A0E0B1E0E0E7C8
:1000D000F6E102C005900D92A831B107D9F722E0F0
:1000E000A8E1B1E001C01D92A838B207E1F710E025
:1000F000CDE5D0E004C02197FE010E94EC09CC358B
:10010000D107C9F70E94AC060C942B0B0C9400008D
:1001100090E0FC01EC55FF4F2491FC01E057FF4FAC
:100120003491FC01E458FF4FE491EE23B9F122230E
:1001300039F1233091F038F42130A9F0223001F563
:1001400084B58F7D12C0273091F02830A1F0243083
:10015000B9F4809180008F7D03C0809180008F77FB
:10016000809380000DC084B58F7784BD09C08091D5
:10017000B0008F7703C08091B0008F7D8093B00076
:10018000F0E0EE0FFF1FEE58FF4FA591B4918FB72F
:10019000F894EC9130953E233C938FBF08958F9255
:1001A0009F92AF92BF92CF92DF92EF92FF924B015C
:1001B000AA24BB24E82DC52ED62EE72EFF24FC2D25
:1001C000342F20915C02222361F0829E4001112491
:1001D000E92DC29E60011124FD2D429FD001112402
:1001E0003B2FF0906202E0905F02A0915D02B0911F
:1001F0005E02FE1008C0AC01440F551F840F951F0E
:100200008A0F9B1F14C0880F991F880F991F8A0F90
:100210009B1F472F552766277727DC01AF0DB11DA0
:10022000222321F0429FA0011124452F4C932091BD
:100230005F02DC01A20FB11DEC9320916002DC0192
:10024000A20FB11DFC9320916102FC01E20FF11D90
:100250003083FF90EF90DF90CF90BF90AF909F9052
:100260008F900895FC0167816734F9F0208531850E
:10027000615031F070E08FEF96E40E94D10902C026
:1002800060E070E0D90144815581CD01821B930B60
:100290008417950740F44C91469FC001479F900DED
:1002A00011249D93F0CF87E487830895CF92DF9246
:1002B000EF92FF920F931F93CF93DF936C017A011C
:1002C0008B01C0E0D0E0CE15DF0589F0D8016D913B
:1002D0008D01D601ED91FC910190F081E02DC601D8
:1002E0000995892B11F47E0102C02196ECCFC7013C
:1002F000DF91CF911F910F91FF90EF90DF90CF9002
:100300000895089580E090E00895FC01538D448D98
:10031000252F30E0842F90E0821B930B541710F0B0
:10032000CF96089501970895FC01918D828D9817BD
:1003300061F0828DDF01A80FB11D5D968C91928DC9
:100340009F5F9F73928F90E008958FEF9FEF0895C6
:10035000FC01918D828D981731F0828DE80FF11D8F
:10036000858D90E008958FEF9FEF0895FC01918DAA
:10037000228D892F90E0805C9F4F821B91098F73A3
:100380009927089583EA91E00E94B60121E0892B24
:1003900009F420E0822F0895FC01848DDF01A80F6D
:1003A000B11DA35ABF4F2C91848D90E001968F739D
:1003B0009927848FA689B7892C93A089B1898C91BC
:1003C00080648C93938D848D981306C00288F38982
:1003D000E02D80818F7D80830895EF92FF920F93AF
:1003E0001F93CF93DF93EC0181E0888F9B8D8C8DE1
:1003F000981305C0E889F989808185FD24C0F62E0F
:100400000B8D10E00F5F1F4F0F731127E02E8C8DA7
:10041000E8120CC00FB607FCFACFE889F989808191
:1004200085FFF5CFCE010E94CC01F1CF8B8DFE016F
:10043000E80FF11DE35AFF4FF0820B8FEA89FB8929
:100440008081806207C0EE89FF896083E889F9892D
:1004500080818064808381E090E0DF91CF911F9163
:100460000F91FF90EF900895CF93DF93EC01888D6B
:100470008823C9F0EA89FB89808185FD05C0A889A8
:10048000B9898C9186FD0FC00FB607FCF5CF80812E
:1004900085FFF2CFA889B9898C9185FFEDCFCE0178
:1004A0000E94CC01E7CFDF91CF91089580E090E0EA
:1004B000892B29F00E94C20181110C94000008953B
:1004C000CF93DF9390E0FC01E057FF4F2491FC01B4
:1004D000E458FF4F8491882361F190E0880F991FC1
:1004E000FC01E859FF4FC591D491FC01EE58FF4F34
:1004F000A591B491611109C09FB7F89488812095A6
:1005000082238883EC912E230BC0623061F49FB765
:10051000F8943881822F809583238883EC912E2B49
:100520002C939FBF06C08FB7F894E8812E2B2883A9
:100530008FBFDF91CF9108958E3008F08E50877075
:10054000806480937C0080917A00806480937A003C
:1005500080917A0086FDFCCF80917800209179000F
:1005600090E0922B08953FB7F89480911D019091EF
:100570001E01A0911F01B091200126B5A89B05C0C6
:100580002F3F19F00196A11DB11D3FBFBA2FA92F12
:10059000982F8827820F911DA11DB11DBC01CD018F
:1005A00042E0660F771F881F991F4A95D1F708957B
:1005B0008F929F92AF92BF92CF92DF92EF92FF9273
:1005C0006B017C010E94B3024B015C01C114D10498
:1005D000E104F104F1F00E94B302DC01CB018819BF
:1005E0009909AA09BB09883E9340A105B10570F39A
:1005F00021E0C21AD108E108F10888EE880E83E0F4
:10060000981EA11CB11CC114D104E104F10419F716
:10061000DDCFFF90EF90DF90CF90BF90AF909F9095
:100620008F9008950F931F93CF93DF9380916C0267
:100630000E949C02EC0100E110E080916C020E949B
:100640009C02C80FD91F62E070E080E090E00E9439
:10065000D8020150110989F79E01D7FF02C0215F1E
:100660003F4F84E0359527958A95E1F7E0916A023E
:10067000F0916B02E217F30734F02530310524F4D2
:1006800025E030E001C09F01C901330FAA0BBB0B6D
:100690009C01AD012550310941095109A6EEB0E098
:1006A0000E9436088F01FF0F220B330BA90198011E
:1006B00025503109410951090E94170837FF05C02B
:1006C00010926F0210926E0204C030936F0220935A
:1006D0006E0280916E0290916F02DF91CF911F9117
:1006E0000F9108951F93CF93DF93EC01162F89810B
:1006F000882331F08E8187FD03C060E00E94600294
:100700001E838981882339F061E0812F0E94600275
:10071000812F0E948800812F90E0FC01E458FF4F58
:10072000E491F0E0EE0FFF1FEE58FF4F259134915A
:100730003B8B2A8BFC01E057FF4FE491EC8BDF9160
:10074000CF911F910895CF92DF92EF92FF920F9376
:100750001F93CF93DF93CDB7DEB729970FB6F894E9
:10076000DEBF0FBECDBF8C01DC0118968D919C9130
:100770001997892B09F4A3C00E94B302F801C6841B
:10078000D784E088F188DC01CB018C199D09AE0982
:10079000BF098C329140A105B10570F3F894D801DE
:1007A00014968D919C9115979A8389831896ED9153
:1007B000FC9119977F01BFEFEB1AFB0A80818987B3
:1007C000F80190810288F389E02DD80154968C912C
:1007D000992309F430C09081982B98879081809557
:1007E00089238F838F818C8388E08B8358856F81E9
:1007F00049853B812C8189819A81D701508347FDAE
:10080000252F3A952083262F39F0441F00C0000081
:100810006083000000C0F2CF38E04D91608300009B
:10082000019761F7D8015396FC93EE93529749874D
:100830003B832C833AC09081982B98879081809538
:1008400089238F838F818E8388E08D8358856F8184
:1008500049853D812E8189819A81D701508347FD49
:10086000252F00C000C0208300C000C000C000C011
:1008700000C060830000262F3A9541F0441F00001D
:1008800000C000C000C000C000C0E8CF38E04D91FB
:1008900000C0608300C0019709F7D8015396FC930C
:1008A000EE93529749873D832E839A838983789468
:1008B0000E94B302F80166877787808B918B299617
:1008C0000FB6F894DEBF0FBECDBFDF91CF911F9161
:1008D0000F91FF90EF90DF90CF900895CF93DF932B
:1008E000EC018E8187FD06C061E00E9460028E816E
:1008F0000E94880081E08983DF91CF910895CF9392
:10090000DF93EC0188810E949C022BEE30E0DC0139
:100910000E94E5092CEB32E040E050E00E9417080D
:100920008A819B81FC013196E217F30724F001973D
:100930002817390714F43B832A838A819B81DF912E
:10094000CF910895AF92BF92CF92DF92EF92FF9234
:100950000F931F93CF93DF93CDB7DEB760970FB69A
:10096000F894DEBF0FBECDBF8F87988B88E792E0EB
:100970000E947F047C0184E792E00E947F045C0176
:1009800080E792E00E947F048C012FEF30E0D701D6
:100990000E94E5092BEEC22ED12CE12CF12CA701EF
:1009A00096010E9417083A8729872FEF30E0D5017A
:1009B0000E94E509A70196010E9417083C872B8732
:1009C0002FEF30E0D8010E94E509A70196010E94AF
:1009D00017083E872D8788E0FE013996DE011196C3
:1009E00001900D928A95E1F729813A814B815C81D2
:1009F0006D817E818F81988560960FB6F894DEBFF9
:100A00000FBECDBFDF91CF911F910F91FF90EF905F
:100A1000DF90CF90BF90AF9008950E941F0BEF9290
:100A2000FF920F931F93CF93DF93EC017B01888597
:100A30009985009711F00E94870A9D858A859817ED
:100A400019F084E090E002C083E090E08E9D800188
:100A50008F9D100D9E9D100D11241D830C83C801C8
:100A60000E94F20999878887009741F0A80160E009
:100A700070E00E94240BFB82EA8204C01D821C826B
:100A80001B821A82DF91CF911F910F91FF90EF90FF
:100A90000895CF93DF93EC0188859985009711F035
:100AA0000E94870A8E8187FD05C060E0DF91CF91AB
:100AB0000C946002DF91CF9108951F920F920FB6B0
:100AC0000F9211242F933F934F935F936F937F93D4
:100AD0008F939F93AF93BF93EF93FF9383EA91E03C
:100AE0000E94CC01FF91EF91BF91AF919F918F91A7
:100AF0007F916F915F914F913F912F910F900FBE1A
:100B00000F901F9018951F920F920FB60F921124FD
:100B10002F938F939F93EF93FF93E091B301F09105
:100B2000B4018081E091B901F091BA0182FD12C057
:100B300090818091BC018F5F8F732091BD018217DE
:100B400051F0E091BC01F0E0ED55FE4F958F8093A0
:100B5000BC0101C08081FF91EF919F918F912F91F6
:100B60000F900FBE0F901F9018951F920F920FB607
:100B70000F9211242F933F938F939F93AF93BF9323
:100B80008091190190911A01A0911B01B0911C0153
:100B90003091180123E0230F2D3720F40196A11D79
:100BA000B11D05C026E8230F0296A11DB11D20939B
:100BB00018018093190190931A01A0931B01B0931F
:100BC0001C0180911D0190911E01A0911F01B09107
:100BD00020010196A11DB11D80931D0190931E015E
:100BE000A0931F01B0932001BF91AF919F918F916E
:100BF0003F912F910F900FBE0F901F9018951F934C
:100C0000CF93DF93E3EAF1E01382128288EE93E060
:100C1000A0E0B0E084839583A683B7838AE091E067
:100C20009183808385EC90E09587848784EC90E0C5
:100C30009787868780EC90E0918B808B81EC90E0A9
:100C4000938B828B82EC90E0958B848B86EC90E08A
:100C5000978B868B118E128E138E148ECCE7D2E07A
:100C600083E090E09983888384E090E09B838A838B
:100C700085E090E09D838C8360E083E00E946002C9
:100C800060E08A810E94600260E08C810E946002C4
:100C9000C8E7D2E08EE090E0998388830E949C02AE
:100CA0009B838A83C4E7D2E08FE090E099838883B6
:100CB0000E949C029B838A83C0E7D2E080E190E09F
:100CC000998388830E949C029B838A83CAE6D2E030
:100CD00084E690E09983888383E190E09B838A8314
:100CE0000E949C029D838C83E5E5F2E011821782CD
:100CF0001186108616861786108A118A13E01587CA
:100D0000C1E0C2871386D2E0D487C0836CE370E071
:100D1000CF010E940F056AE085E592E00E94720310
:100D2000E0E4F2E01182178211861086168617869B
:100D3000108A118A1587C2871386D487C0836CE313
:100D400070E0CF010E940F056BE080E492E0DF913C
:100D5000CF911F910C947203789484B5826084BD06
:100D600084B5816084BD85B5826085BD85B58160AF
:100D700085BD80916E00816080936E00109281002D
:100D800080918100826080938100809181008160E8
:100D900080938100809180008160809380008091A9
:100DA000B10084608093B1008091B0008160809335
:100DB000B00080917A00846080937A0080917A00FC
:100DC000826080937A0080917A00816080937A00BB
:100DD00080917A00806880937A001092C100E0913F
:100DE000B301F091B40182E08083E091AF01F09112
:100DF000B0011082E091B101F091B2018FEC8083DB
:100E00001092BB01E091B701F091B80186E08083B8
:100E1000E091B501F091B601808180618083E0911D
:100E2000B501F091B601808188608083E091B501C1
:100E3000F091B601808180688083E091B501F091E6
:100E4000B60180818F7D808388E792E00E947F04D5
:100E500088E792E00E947F0488E792E00E947F0486
:100E6000C4E6D0E0C093A101D093A20120919B01E0
:100E700030919C0140919D0150919E0160919F0194
:100E80007091A0018C2F90E00E94A20420939B01FE
:100E900030939C0140939D0150939E0160939F016C
:100EA0007093A0018093A1019093A201C0936A0264
:100EB000D0936B0280E492E00E94320180E492E0E1
:100EC0000E946E0480E492E00E94A30385E592E014
:100ED0000E94320185E592E00E946E0485E592E071
:100EE0000E94A30320919B0130919C0140919D01A0
:100EF00050919E0160919F017091A0018091A1018C
:100F00009091A2010E94A20420939B0130939C0126
:100F100040939D0150939E0160939F017093A001A7
:100F20008093A1019093A2018091990190919A01DF
:100F30008D3391052CF010929A011092990105C001
:100F4000019690939A0180939901C0919901D09153
:100F50009A010E941203BC01990F880B990B0E9401
:100F60001C0920E030E046E653E40E9472086B0161
:100F70007C0120E030E040E85FE30E94A8091816F9
:100F800034F4C12CD12C40E8E42E4FE3F42ECC0FE6
:100F9000DD1FCF5DDE4FC701B6010E94E4087983F3
:100FA0006883E0909B01C0909D01F0909F01D090DC
:100FB000A10101E211E0C0E0D0E0809157029091E0
:100FC0005802C817D907F0F4F80180810E5F1F4F4F
:100FD0008D9D902D11248E9D402D112450E060E0B8
:100FE00070E0BA0155274427792B8F9D902D11244D
:100FF000492B8C9D802D1124582BCE010E94CF00AF
:101000002196DBCF61E070E080E090E00E94D802A2
:1010100085E592E00E94A3030E94560263CF80E41C
:1010200092E00E94490585E592E00C944905052E61
:1010300097FB1EF400940E942E0857FD07D00E94D3
:10104000410807FC03D04EF40C942E0850954095AF
:10105000309521953F4F4F4F5F4F08959095809564
:10106000709561957F4F8F4F9F4F08950E94630841
:10107000A59F900DB49F900DA49F800D911D1124EC
:101080000895A1E21A2EAA1BBB1BFD010DC0AA1FC9
:10109000BB1FEE1FFF1FA217B307E407F50720F0E1
:1010A000A21BB30BE40BF50B661F771F881F991F5C
:1010B0001A9469F760957095809590959B01AC01A5
:1010C000BD01CF010895A29FB001B39FC001A39FAE
:1010D000700D811D1124911DB29F700D811D112471
:1010E000911D08950E9486080C946E090E9467095C
:1010F00058F00E94600940F029F45F3F29F00C94F9
:10110000570951110C94A2090C945D090E947F09A2
:1011100068F39923B1F3552391F3951B550BBB2726
:10112000AA2762177307840738F09F5F5F4F220F6B
:10113000331F441FAA1FA9F335D00E2E3AF0E0E862
:1011400032D091505040E695001CCAF72BD0FE2FAC
:1011500029D0660F771F881FBB1F26173707480740
:10116000AB07B0E809F0BB0B802DBF01FF279358F8
:101170005F4F3AF09E3F510578F00C9457090C945C
:10118000A2095F3FE4F3983ED4F38695779567957F
:10119000B795F7959F5FC9F7880F911D969587952D
:1011A00097F90895E1E0660F771F881FBB1F62174C
:1011B00073078407BA0720F0621B730B840BBA0B0A
:1011C000EE1F88F7E09508950E94EB086894B1112E
:1011D0000C94A20908950E94870988F09F5798F0FF
:1011E000B92F9927B751B0F0E1F0660F771F881F2C
:1011F000991F1AF0BA95C9F714C0B13091F00E9446
:10120000A109B1E008950C94A109672F782F8827D0
:10121000B85F39F0B93FCCF3869577956795B3956C
:10122000D9F73EF490958095709561957F4F8F4FDB
:101230009F4F0895E89409C097FB3EF490958095E0
:10124000709561957F4F8F4F9F4F9923A9F0F92F8C
:1012500096E9BB279395F695879577956795B7950A
:10126000F111F8CFFAF4BB0F11F460FF1BC06F5FF0
:101270007F4F8F4F9F4F16C0882311F096E911C002
:10128000772321F09EE8872F762F05C0662371F023
:1012900096E8862F70E060E02AF09A95660F771F37
:1012A000881FDAF7880F9695879597F9089597F92B
:1012B0009F6780E870E060E008959FEF80EC0895FC
:1012C00000240A9416161706180609060895002425
:1012D0000A9412161306140605060895092E03949F
:1012E000000C11F4882352F0BB0F40F4BF2B11F413
:1012F00060FF04C06F5F7F4F8F4F9F4F089557FD72
:101300009058440F551F59F05F3F71F04795880F73
:1013100097FB991F61F09F3F79F08795089512160A
:1013200013061406551FF2CF4695F1DF08C01616B6
:1013300017061806991FF1CF869571056105089467
:101340000895E894BB2766277727CB0197F908957E
:101350000E94AD0908F48FEF0895990F0008550F0A
:10136000AA0BE0E8FEEF16161706E807F907C0F02B
:1013700012161306E407F50798F0621B730B840B33
:10138000950B39F40A2661F0232B242B252B21F40D
:1013900008950A2609F4A140A6958FEF811D811DAD
:1013A0000895AA1BBB1B51E107C0AA1FBB1FA617AC
:1013B000B70710F0A61BB70B881F991F5A95A9F7FE
:1013C00080959095BC01CD0108950E946308B7FFF8
:1013D0000895821B930B0895EE0FFF1F0590F49163
:1013E000E02D0994CF93DF938230910510F482E0D1
:1013F00090E0E0918602F091870220E030E0C0E0CA
:10140000D0E0309711F14081518148175907C0F061
:101410004817590761F482819381209719F09B83C3
:101420008A832BC0909387028093860226C0211561
:10143000310519F04217530718F49A01BE01DF0174
:10144000EF010280F381E02DDCCF2115310509F198
:10145000281B390B2430310590F412968D919C9104
:1014600013976115710521F0FB019383828304C0FA
:101470009093870280938602FD01329644C0FD015D
:10148000E20FF31F81939193225031092D933C93E6
:101490003AC02091840230918502232B41F420919F
:1014A0000201309103013093850220938402209140
:1014B0000001309101012115310541F42DB73EB7EE
:1014C0004091040150910501241B350BE0918402E9
:1014D000F0918502E217F307A0F42E1B3F0B2817AB
:1014E000390778F0AC014E5F5F4F2417350748F09D
:1014F0004E0F5F1F50938502409384028193919316
:1015000002C0E0E0F0E0CF01DF91CF9108950F93AA
:101510001F93CF93DF93009709F48CC0FC0132979F
:101520001382128200918602109187020115110523
:1015300081F420813181820F931F209184023091A8
:1015400085022817390779F5F0938502E093840224
:1015500071C0D80140E050E0AE17BF0750F41296BA
:101560002D913C911397AD012115310509F1D90158
:10157000F3CF9D01DA013383228360817181860F6D
:10158000971F8217930769F4EC0128813981260F90
:10159000371F2E5F3F4F318320838A819B81938346
:1015A0008283452B29F4F0938702E093860242C0A0
:1015B0001396FC93EE931297ED01499159919E0178
:1015C000240F351FE217F30771F480819181840F96
:1015D000951F029611969C938E9382819381139608
:1015E0009C938E931297E0E0F0E0D80112968D91D3
:1015F0009C911397009719F0F8018C01F6CF8D910B
:101600009C9198012E5F3F4F820F931F209184027F
:10161000309185022817390769F4309729F4109220
:1016200087021092860202C01382128210938502F2
:1016300000938402DF91CF911F910F91089581E073
:1016400090E0F8940C942B0BDC0101C06D93415099
:101650005040E0F7089510E0CDE5D0E004C0FE0171
:101660000E94EC092196CE35D107C9F7F894FFCF37
:1016700000008802800000000000ED015601850195
:081680003402B6019401A80137
:00000001FF
